:100000000C947C000C94A4000C94A4000C94A40008
:100010000C94A4000C94A4000C94A4000C94A400D0
:100020000C94A4000C94A4000C94A4000C94A400C0
:100030000C94A4000C94AC040C94A4000C94A400A4
:100040000C9462040C94A4000C9430040C940A04E4
:100050000C94A4000C94A4000C94A4000C94A40090
:100060000C94B6040C94A4000000000800020100E7
:100070000003040700000000000000000000000072
:10008000250028002B0000000000240027002A0083
:10009000040404040404040402020202020203032E
:1000A0000303030301020408102040800102040836
:1000B00010200102040810204E414E494E49545967
:1000C000494E46CDCCCC3D0AD7233C17B7D1387723
:1000D000CC2B329595E6241FB14F0A000020410039
:1000E00000C84200401C4620BCBE4CCA1B0E5AAE83
:1000F000C59D7400E405300911241FBECFEFD8E080
:10010000DEBFCDBF11E0A0E0B1E0E0E6FDE102C05E
:1001100005900D92A234B107D9F722E0A2E4B1E034
:1001200001C01D92AE3AB207E1F710E0CBE7D0E094
:1001300004C02197FE010E943C09CA37D107C9F7C4
:100140000E9439060C94A30E0C94000090E0FC0170
:10015000EC55FF4F2491FC01E057FF4F8491882319
:1001600099F090E0880F991FFC01EA57FF4FA59185
:10017000B491FC01E458FF4F859194918FB7F894A6
:10018000EC91E22BEC938FBF08950895CF92DF920C
:10019000EF92FF920F931F93CF93DF936C017A013D
:1001A0008B01C0E0D0E0CE15DF0589F0D8016D915C
:1001B0008D01D601ED91FC910190F081E02DC601F9
:1001C0000995892B11F47E0102C02196ECCFC7015D
:1001D000DF91CF911F910F91FF90EF90DF90CF9023
:1001E0000895FC01918D828D981761F0828DDF0159
:1001F000A80FB11D5D968C91928D9F5F9F73928F1A
:1002000090E008958FEF9FEF0895FC01918D828D0E
:10021000981731F0828DE80FF11D858D90E00895DB
:100220008FEF9FEF0895FC01918D228D892F90E033
:10023000805C9F4F821B91098F739927089587EEE9
:1002400091E00E94130121E0892B09F420E0822F24
:100250000895FC01848DDF01A80FB11DA35ABF4F83
:100260002C91848D90E001968F739927848FA689B5
:10027000B7892C93A089B1898C9180648C93938DDC
:10028000848D981306C00288F389E02D80818F7DCC
:1002900080830895EF92FF920F931F93CF93DF9384
:1002A000EC0181E0888F9B8D8C8D981305C0E889C7
:1002B000F989808185FD24C0F62E0B8D10E00F5F3B
:1002C0001F4F0F731127E02E8C8DE8120CC00FB654
:1002D00007FCFACFE889F989808185FFF5CFCE0147
:1002E0000E942901F1CF8B8DFE01E80FF11DE35A29
:1002F000FF4FF0820B8FEA89FB898081806207C003
:10030000EE89FF896083E889F98980818064808330
:1003100081E090E0DF91CF911F910F91FF90EF90DE
:100320000895CF93DF93EC01888D8823C9F0EA8983
:10033000FB89808185FD05C0A889B9898C9186FDDE
:100340000FC00FB607FCF5CF808185FFF2CFA889DB
:10035000B9898C9185FFEDCFCE010E942901E7CFAD
:10036000DF91CF91089580E090E0892B29F00E94E1
:100370001F0181110C940000089590E0FC01E859E0
:10038000FF4F3491FC01EC55FF4F2491FC01E057E5
:10039000FF4FE491EE2309F43BC0332339F13330AE
:1003A00091F038F43130A9F0323001F584B58F7D09
:1003B00012C0373091F03830A1F03430B9F4809168
:1003C00080008F7D03C0809180008F7780938000B4
:1003D0000DC084B58F7784BD09C08091B0008F7740
:1003E00003C08091B0008F7D8093B000F0E0EE0FED
:1003F000FF1FE458FF4FA591B4918FB7F894EC918B
:10040000611103C020952E2301C02E2B2C938FBF8A
:100410000895089585ED8093BC008091BC0084FD13
:10042000FCCF1092B001089540916501262F30E075
:10043000240F311D21323105DCF42091B00124302C
:10044000C9F4FC0180E090E0861758F43091650112
:100450002191DC01AD5BBE4FA30FB11D2C93019622
:10046000F3CF80916501680F6093650180E0089586
:1004700081E0089582E0089508958FEF9FEF089539
:100480008FEF9FEF08958091420190E091958195C3
:1004900091090895CF92DF92EF92FF920F931F93ED
:1004A000CF93DF937C01262F972F8A018091B10192
:1004B000882391F0C62FD72F6E01C40ED51ECC1500
:1004C000DD0571F06991D701ED91FC910190F0810A
:1004D000E02DC7010995F3CF642F822F0E941402EB
:1004E000C801DF91CF911F910F91FF90EF90DF90A6
:1004F000CF900895CF93DF931F92CDB7DEB7698376
:100500002091B1012223D1F02091D401203240F07A
:1005100021E030E0FC013383228380E090E015C0CD
:100520008091B201E82FF0E0ED54FE4F9981908365
:100530008F5F8093B2018093D40105C061E0CE014A
:1005400001960E94140281E090E00F90DF91CF911C
:100550000895CF93FC01C48121E02093B101C093A1
:10056000D3011092B2011092D4018385682B84E8E4
:1005700092E00E947A028091D401813208F046C054
:100580009091B0019111FCCF92E09093B00191E075
:100590009093AF019FEF9093AE011092AD018093C5
:1005A000AC01A3EBB1E02CE831E0F9019E2F921BE6
:1005B000981718F49D919193F9CF10928B01809127
:1005C0008B01CC0FC82BC0938B0180918A018130A5
:1005D00061F410928A0180918B018093BB0080911D
:1005E000BC0083FDF8CF85EC01C085EE8093BC0094
:1005F0008091B0018230E1F38091AE018F3F31F004
:100600008091AE01803211F08091AE011092B20162
:100610001092D4011092B101CF9108950F931F93BE
:10062000CF938C01C62F64600E94A9026C2F6B7F50
:10063000C8010E94A90283EC90E00197F1F7CF91E5
:100640001F910F9108950F931F93CF93DF938C0108
:10065000C62FD62FD07FD1606D2F0E94A9026D2F9B
:10066000C8010E940E0380E1C89FB0011124C62F6B
:10067000C1606C2FC8010E94A9026C2FC8010E94A2
:100680000E0381E090E0DF91CF911F910F910895CB
:100690000F931F93CF93DF93EC018881998100978B
:1006A00029F02A813B812617370788F48B016F5F79
:1006B0007F4F0E94740A009761F0998388831B839F
:1006C0000A832C813D81232B11F4FC01108281E0EF
:1006D00001C080E0DF91CF911F910F910895CF93DA
:1006E000DF93EC0188819981009711F00E94DC0969
:1006F000198218821D821C821B821A82DF91CF917F
:100700000895EF92FF920F931F93CF93DF93EC0125
:100710007B018A01BA010E944803811104C0CE0105
:100720000E946F0307C01D830C83B70188819981E4
:100730000E94570BCE01DF91CF911F910F91FF9037
:10074000EF900895FC0111821082138212821582AB
:1007500014826115710551F0FB0101900020E9F749
:100760003197AF01461B570B0C9481030895DF921C
:10077000EF92FF920F931F93CF93DF937C01EB01D6
:100780008A014617570720F48D2FEA01062F182FEC
:1007900061E471E0C7010E94A20380919A029091E6
:1007A0009B02C817D90758F58017910708F48C01E8
:1007B000E0919602F0919702E00FF11FD080108235
:1007C00060919602709197026C0F7D1F6115710503
:1007D00061F0FB0101900020E9F73197AF01461B62
:1007E000570BC7010E94810303C0C7010E946F031A
:1007F000E0919602F0919702E00FF11FD082C701BD
:10080000DF91CF911F910F91FF90EF90DF900895AE
:100810000E943E0B1F920F920FB60F9211242F933E
:100820003F934F935F936F937F938F939F93AF9378
:10083000BF93EF93FF9387EE91E00E942901FF9110
:10084000EF91BF91AF919F918F917F916F915F9148
:100850004F913F912F910F900FBE0F901F901895C1
:100860001F920F920FB60F9211242F938F939F9385
:10087000EF93FF93E091F701F091F8018081E0910F
:10088000FD01F091FE0182FD12C090818091000275
:100890008F5F8F7320910102821751F0E091000267
:1008A000F0E0E951FE4F958F8093000201C08081F6
:1008B000FF91EF919F918F912F910F900FBE0F900D
:1008C0001F9018951F920F920FB60F9211242F931D
:1008D0003F938F939F93AF93BF938091DA01909151
:1008E000DB01A091DC01B091DD013091D90123E061
:1008F000230F2D3720F40196A11DB11D05C026E858
:10090000230F0296A11DB11D2093D9018093DA0116
:100910009093DB01A093DC01B093DD018091D501C0
:100920009091D601A091D701B091D8010196A11D57
:10093000B11D8093D5019093D601A093D701B093B8
:10094000D801BF91AF919F918F913F912F910F90BF
:100950000FBE0F901F9018951F920F920FB60F9217
:1009600011240F900FBE0F901F9018951F920F9299
:100970000FB60F9211242F933F934F935F936F9372
:100980007F938F939F93AF93BF93EF93FF93809148
:10099000B900887F803609F49CC068F5883209F474
:1009A0005BC090F4803109F454C038F4882309F412
:1009B000F6C0883009F44DC0F6C0883109F44CC047
:1009C000803209F45DC0EFC0803409F468C048F497
:1009D000803309F455C0883309F0E5C08093AE0137
:1009E000D8C0803509F44FC0883509F45DC088341B
:1009F00009F0D9C0D6C0883909F4C7C0A8F488372F
:100A000009F467C038F4883609F463C0803709F404
:100A100060C0C9C0883809F4B8C0803909F45FC023
:100A2000803809F0C0C05BC0803B09F486C038F450
:100A3000803A09F466C0883A09F47FC0B4C0803CAB
:100A400009F4A7C0883C09F4A4C0883B09F48AC013
:100A5000AAC080918B0110C09091AD018091AC0132
:100A6000981770F5E091AD0181E08E0F8093AD0194
:100A7000F0E0E457FE4F80818093BB0085EC86C098
:100A80008093AE018EC0E091AD0181E08E0F809326
:100A9000AD018091BB00F0E0E457FE4F8083909160
:100AA000AD018091AC016EC0E091AD0181E08E0F8F
:100AB0008093AD018091BB00F0E0E457FE4F80834E
:100AC0008091AF0181116DC081E080938A0184EA39
:100AD00061C083E08093B00110928901CFCF8091F3
:100AE0008901803208F051C0E091890181E08E0FC8
:100AF000809389018091BB00F0E0E759FE4F80832D
:100B0000BDCF85EC8093BC001092B001809189012B
:100B1000803230F4E0918901F0E0E759FE4F108215
:100B20006091890170E0E0916701F091680189E6C8
:100B300091E009951092890136C084E08093B0015C
:100B40001092660110926501E0916301F0916401D9
:100B5000099580916501811105C081E0809365014F
:100B600010924301E091660181E08E0F809366014F
:100B7000F0E0ED5BFE4F80818093BB0090916601B9
:100B800080916501981708F479CF85E88093BC00BF
:100B90000AC085EC8093BC001092B00104C0109292
:100BA000AE010E940A02FF91EF91BF91AF919F9118
:100BB0008F917F916F915F914F913F912F910F9006
:100BC0000FBE0F901F901895E7EEF1E0138212828E
:100BD00088EE93E0A0E0B0E084839583A683B7839A
:100BE0002AE031E03183208325EC30E0358724870B
:100BF00024EC30E03787268720EC30E0318B208BE7
:100C000021EC30E0338B228B22EC30E0358B248BCF
:100C100026EC30E0378B268B118E128E138E148EBD
:100C2000E4E8F2E01382128284839583A683B7837B
:100C30008AE191E091838083ECE9F2E013821282F1
:100C40008AE291E09183808387E2848380E18087D8
:100C500082E08187128688E0838761E471E086E91B
:100C600092E00E94A20361E471E080E992E00C94BA
:100C7000A203CF93DF93CDB7DEB7AC970FB6F8944E
:100C8000DEBF0FBECDBF789484B5826084BD84B5CD
:100C9000816084BD85B5826085BD85B5816085BD77
:100CA00080916E00816080936E001092810080912F
:100CB00081008260809381008091810081608093B7
:100CC0008100809180008160809380008091B100DC
:100CD00084608093B1008091B00081608093B00007
:100CE00080917A00846080937A0080917A0082609B
:100CF00080937A0080917A00816080937A0080915D
:100D00007A00806880937A001092C100E091F70128
:100D1000F091F80182E08083E091F301F091F40119
:100D20001082E091F501F091F60180E1808310924C
:100D3000FF01E091FB01F091FC0186E08083E091EE
:100D4000F901F091FA01808180618083E091F901DD
:100D5000F091FA01808188608083E091F901F0913F
:100D6000FA01808180688083E091F901F091FA01B5
:100D700080818F7D80838DE00E94A6008CE00E94A0
:100D8000A6008BE00E94A6008AE00E94A60089E0EF
:100D90000E94A60082E00E94A60083E00E94A600B6
:100DA00040E150E06EE271E087EE91E00E94C60003
:100DB00042E050E06FE371E087EE91E00E94C600F0
:100DC00020E1722E87EE91E00E9413011816190699
:100DD0000CF00FC287EE91E00E94F100182F809373
:100DE000E6018F3209F44EC01A8219821C821B82DE
:100DF0001E821D82609196027091970261157105A5
:100E000049F040919A0250919B02CE0101960E94B6
:100E1000810304C0CE0101960E946F0319A31AA298
:100E20000D811E810F5F1F4FB801CE0101960E94F8
:100E30004803882371F029813A818D819E81BE010A
:100E40006F5D7F4F820F931F0E94570B1E830D8390
:100E500004C0CE0101960E946F0369817A816115F9
:100E6000710539F04D815E8186E992E00E9481032F
:100E700004C086E992E00E946F0389819A810E94F2
:100E8000DC09E3C1ADB6BEB680919A0290919B0297
:100E9000892B79F0E0909602F090970260E270E082
:100EA000C7010E944C0B009721F08C010E191F09FD
:100EB00002C00FEF1FEF1093E5010093E401A801BA
:100EC00060E070E0CE0101960E94B70389809A80AD
:100ED0008114910431F0C4010E94710B6B017C01FB
:100EE00003C0C12CD12C7601D092E301C092E20163
:100EF000C4010E94DC090F5F1F4F1093E1010093B2
:100F0000E001CC0CDD1CCC0CDD1C8DB79EB78C1920
:100F10009D090FB6F8949EBF0FBE8DBF0DB71EB7CB
:100F20000F5F1F4F61E471E0CE0187960E94A2031C
:100F30004801C12CD12C8091E2019091E301C816A7
:100F4000D9060CF089C0E090E001F090E1018091B9
:100F50009A0290919B02E816F90688F44090960256
:100F60005090970260E270E0C2018E0D9F1D0E94BA
:100F70004C0B009721F0AC014419550902C04FEF0A
:100F80005FEF5093E5014093E401B701CE018196F4
:100F90000E94B7038FA198A50097A9F069A17AA133
:100FA0006115710571F049A55AA52DA13EA1421701
:100FB000530738F00E94570B8DA19EA19CA78BA7C9
:100FC00012C00E94DC0989A19AA198A78FA38BA1C6
:100FD0009CA19AA789A78DA19EA19CA78BA71AA2C5
:100FE00019A21CA21BA21EA21DA289A19AA10E9445
:100FF000DC09EBA4FCA4E114F10411F4198215C07E
:101000009FE1E916F10418F08FE1E82EF12C6FA1B1
:1010100078A5A701CE0101960E945E0BE1E0F0E009
:10102000EC0FFD1FEE0DFF1D1082CE0101960E94F8
:101030006D0BF40161937193819391934F018091B2
:10104000E4019091E50101969093E1018093E00124
:10105000FFEFCF1ADF0A6FCFF801C080D180E280A6
:10106000F38020E030E0A901C701B6010E944209E7
:10107000181664F420E030E040E85FE3C701B601F1
:101080000E942B0D87FF02C061E001C060E08BE091
:101090000E94BD0120E030E040E85FE3C701B601F7
:1010A0000E942B0D811102C061E001C060E08DE063
:1010B0000E94BD01F801C488D588E688F78820E041
:1010C00030E040EC50E4C701B6010E942B0D8111C5
:1010D00024C0F801C480D580E680F7802FE832EC88
:1010E00045E75EE3C701B6010E94420987FD02C0E1
:1010F00061E001C060E08AE00E94BD012BE734E1BD
:101100004EE65FE3C701B6010E94420987FD02C0B7
:1011100061E001C060E089E01BC020E030E040E811
:101120005FE3C701B6010E942B0D811113C020E0BF
:1011300030E040E85FE3F801648175818681978142
:101140000E94420987FD02C061E001C060E08AE0C0
:101150000E94BD0120E030E040E85FE3F8016085D7
:101160007185828593850E942B0D811102C061E0FB
:1011700001C060E08CE00E94BD0120E030E048EB5F
:1011800051E4F80164857585868597850E9442093A
:1011900087FD02C061E001C060E082E00E94BD0105
:1011A00020E030E040E85FE3F801608971898289DE
:1011B00093890E942B0D811102C061E001C060E0A3
:1011C00083E00E94BD0140E050E061E471E086E907
:1011D00092E00E9481031092DF011092DE018FA144
:1011E00098A50E94DC090FB6F894BEBE0FBEADBE36
:1011F0002CC08091DE019091DF018132FEE49F07D7
:10120000FCF07092810060E08BE00E94BD0160E024
:101210008DE00E94BD0160E08AE00E94BD0160E0B7
:1012200089E00E94BD0160E08CE00E94BD0160E0A9
:1012300082E00E94BD0160E083E00E94BD0105C024
:1012400001969093DF018093DE011092E1011092EC
:10125000E0011092E5011092E4010E94B301B2CDC9
:1012600080919002909191020E94DC0980919602F7
:10127000909197020C94DC09EE0FFF1F0590F491FA
:10128000E02D09940E946D0D08F48FEF0895CF931F
:10129000DF938230910510F482E090E0E091AA02A1
:1012A000F091AB0220E030E0C0E0D0E0309711F1E7
:1012B0004081518148175907C0F04817590761F418
:1012C00082819381209719F09B838A832BC090930E
:1012D000AB028093AA0226C02115310519F04217EE
:1012E000530718F49A01BE01DF01EF010280F38178
:1012F000E02DDCCF2115310509F1281B390B2430F5
:10130000310590F412968D919C911397611571059A
:1013100021F0FB019383828304C09093AB028093FE
:10132000AA02FD01329644C0FD01E20FF31F819332
:101330009193225031092D933C933AC02091A802F9
:101340003091A902232B41F4209102013091030135
:101350003093A9022093A80220910001309101014D
:101360002115310541F42DB73EB74091040150914C
:101370000501241B350BE091A802F091A902E217A8
:10138000F307A0F42E1B3F0B2817390778F0AC01A8
:101390004E5F5F4F2417350748F04E0F5F1F509385
:1013A000A9024093A8028193919302C0E0E0F0E08B
:1013B000CF01DF91CF9108950F931F93CF93DF93C8
:1013C000009709F48CC0FC013297138212820091BD
:1013D000AA021091AB020115110581F4208131811F
:1013E000820F931F2091A8023091A9022817390774
:1013F00079F5F093A902E093A80271C0D80140E00A
:1014000050E0AE17BF0750F412962D913C91139700
:10141000AD012115310509F1D901F3CF9D01DA01A3
:101420003383228360817181860F971F8217930710
:1014300069F4EC0128813981260F371F2E5F3F4F59
:10144000318320838A819B8193838283452B29F476
:10145000F093AB02E093AA0242C01396FC93EE9382
:101460001297ED01499159919E01240F351FE21702
:10147000F30771F480819181840F951F0296119674
:101480009C938E938281938113969C938E93129753
:10149000E0E0F0E0D80112968D919C9113970097AF
:1014A00019F0F8018C01F6CF8D919C9198012E5F77
:1014B0003F4F820F931F2091A8023091A902281755
:1014C000390769F4309729F41092AB021092AA02FE
:1014D00002C0138212821093A9020093A802DF9126
:1014E000CF911F910F910895A0E0B0E0EAE7FAE0F4
:1014F0000C94610EEC01009721F4CB010E94470986
:10150000B8C0FC01E60FF71F9C0122503109E21719
:10151000F30708F4ACC0D9010D911C91119706177F
:101520001707B0F00530110508F49FC0C8010497F3
:101530008617970708F499C002501109061B170B6C
:10154000019311936D937C93CF010E94DC098DC0B0
:101550005B01A01AB10A4C01800E911EA091AA0253
:10156000B091AB0240E050E0E12CF12C109709F46F
:101570004AC0A815B905D1F56D907C90119763010B
:1015800082E0C80ED11CCA14DB0480F1A3014A1901
:101590005B096A0182E0C80ED11C1296BC901297BA
:1015A0001396AC91B5E0CB16D10440F0B282A38380
:1015B00051834083D9016D937C930AC00E5F1F4F06
:1015C000C301800F911FF90191838083EB2DFA2FC6
:1015D000E114F10431F0D7011396FC93EE931297C6
:1015E00044C0F093AB02E093AA023FC08D919C915E
:1015F00011974817590708F4AC017D0112960D9018
:10160000BC91A02DB3CF8091A8029091A90288151A
:101610009905E1F446175707C8F4809100019091AD
:101620000101009741F48DB79EB74091040150919C
:101630000501841B950BE817F907C8F4F093A9027C
:10164000E093A802F901718360830FC0CB010E946F
:1016500047097C01009759F0A801BE010E94430B85
:10166000CE010E94DC09C70104C0CE0102C080E0A7
:1016700090E0CDB7DEB7EEE00C947D0E81E090E017
:10168000F8940C94A30EFB01DC0102C001900D92B2
:1016900041505040D8F70895FC018191861721F000
:1016A0008823D9F7992708953197CF010895FB0131
:1016B000DC0101900D920020E1F70895FB01DC01AF
:1016C0004150504048F001900D920020C9F701C0F0
:1016D0001D9241505040E0F70895662777270C94FB
:1016E000AD0B1F93FC0199278827BC01E894119149
:1016F0001032E9F3193010F01E30C8F31B3251F0EC
:101700001D3249F4689406C00E94980B610F711D48
:10171000811D911D119110531A30B0F33EF4909534
:101720008095709561957F4F8F4F9F4F1F910895C2
:10173000592F482F372F262F660F771F881F991F85
:10174000660F771F881F991F620F731F841F951FD5
:10175000660F771F881F991F0895A0E0B0E0E3EBA4
:10176000FBE00C94610EEC017B016115710519F031
:10177000DB018D939C938E010F5F1F4F7880872D27
:1017800090E00E940A0D892B11F0E801F4CFBDE230
:101790007B1205C00F5F1F4F7980C1E008C0EBE2EC
:1017A0007E1204C08E010E5F1F4F7980C0E0680179
:1017B000F1E0CF1AD10843E050E060EC70E0C601E0
:1017C0000E94130D892BF1F4680122E0C20ED11C96
:1017D00045E050E06BEB70E0C6010E94130D892BD1
:1017E00021F4680187E0C80ED11CE114F10419F05E
:1017F000D701CD92DC92C111FFC060E070E080E8BB
:101800009FE703C143E050E068EB70E0C6010E942F
:10181000130D892B51F4E114F10409F4F2C00E5FA9
:101820001F4FF70111830083ECC0680160E070E096
:10183000CB0100E010E0F601D0EDD70DDA3058F51D
:101840002C2F2260622E2C2F2870C2FF05C0211180
:1018500028C00F5F1F4F25C0222311F0015011092E
:10186000A5E0B0E09B01AC010E94520E4B015C016F
:10187000880C991CAA1CBB1CC501B4016D0F711DFD
:10188000811D911D6839A9E97A078A07A9E19A079C
:1018900040F0C66005C0DE3F51F4C3FD44C0C860DF
:1018A0006C2EBFEFCB1ADB0A7080C62DC4CF2D2F54
:1018B0002F7D2531C1F540814D3211F4C06106C044
:1018C0004B3221F0319621E030E006C03296D6014D
:1018D00011964C9122E030E0A0EDA40FAA3018F050
:1018E000E21BF30B20C040E050E04038BCE05B0757
:1018F0005CF49A01220F331F220F331F420F531F34
:10190000440F551F4A0F511D3196DF0111972C913D
:10191000A0EDA20FAA3048F3C4FF03C05195419532
:101920005109040F151FC1FF07C0E114F10421F094
:101930003197D701ED93FC930E94300DC370C330F3
:1019400019F06B017C0106C06B017C01F7FAF09481
:10195000F7F8F09420E030E0A901C701B6010E9439
:101960002B0D882309F445C017FF06C0119501957A
:101970001109C7EDD0E002C0CFEED0E05E01B8E1C2
:10198000AB1AB1084601BE2DAF2D90E2E92EF12C25
:101990000E151F0584F0FE01259135914591549156
:1019A000B4018B2F9A2F0E94910D4B01B82FA92FB4
:1019B0000E191F09EDCF2497F594E794CA15DB059E
:1019C00039F76401EB2EFA2E8E2D880F8F2D881F8C
:1019D0008F3F49F020E030E0A901C701B6010E9425
:1019E0002B0D811106C082E290E09093AD028093AE
:1019F000AC02C701B60109C060E070E080E89FEF6B
:101A000004C060E070E080EC9FE7CDB7DEB7EEE0A9
:101A10000C947D0E91110C94FE0D803219F08950BA
:101A20008550C8F70895FB01DC014150504088F013
:101A30008D9181341CF08B350CF4805E659161349E
:101A40001CF06B350CF4605E861B611171F3990B11
:101A50000895881BFCCF0E946D0D08F481E0089565
:101A6000E89409C097FB3EF4909580957095619538
:101A70007F4F8F4F9F4F9923A9F0F92F96E9BB27EE
:101A80009395F695879577956795B795F111F8CF6A
:101A9000FAF4BB0F11F460FF1BC06F5F7F4F8F4FD5
:101AA0009F4F16C0882311F096E911C0772321F0CB
:101AB0009EE8872F762F05C0662371F096E8862F63
:101AC00070E060E02AF09A95660F771F881FDAF7BA
:101AD000880F9695879597F90895990F0008550FE7
:101AE000AA0BE0E8FEEF16161706E807F907C0F0A4
:101AF00012161306E407F50798F0621B730B840BAC
:101B0000950B39F40A2661F0232B242B252B21F485
:101B100008950A2609F4A140A6958FEF811D811D25
:101B200008950E94A40D0C94180E0E940A0E38F01D
:101B30000E94110E20F0952311F00C94010E0C94CC
:101B4000070E11240C944C0E0E94290E70F3959FE1
:101B5000C1F3950F50E0551F629FF001729FBB27A4
:101B6000F00DB11D639FAA27F00DB11DAA1F649F40
:101B70006627B00DA11D661F829F2227B00DA11DF3
:101B8000621F739FB00DA11D621F839FA00D611D79
:101B9000221F749F3327A00D611D231F849F600D9A
:101BA000211D822F762F6A2F11249F5750409AF0C3
:101BB000F1F088234AF0EE0FFF1FBB1F661F771F4F
:101BC000881F91505040A9F79E3F510580F00C941A
:101BD000010E0C944C0E5F3FE4F3983ED4F38695CF
:101BE00077956795B795F795E7959F5FC1F7FE2BBA
:101BF000880F911D9695879597F9089599278827BD
:101C0000089597F99F6780E870E060E008959FEF7E
:101C100080EC089500240A94161617061806090683
:101C2000089500240A941216130614060506089552
:101C3000092E0394000C11F4882352F0BB0F40F4DA
:101C4000BF2B11F460FF04C06F5F7F4F8F4F9F4F1A
:101C5000089557FD9058440F551F59F05F3F71F09C
:101C60004795880F97FB991F61F09F3F79F0879503
:101C70000895121613061406551FF2CF4695F1DF8C
:101C800008C0161617061806991FF1CF869571051C
:101C9000610508940895E894BB2766277727CB0150
:101CA00097F908950E94940EA59F900DB49F900DF2
:101CB000A49F800D911D112408952F923F924F9261
:101CC0005F926F927F928F929F92AF92BF92CF92CC
:101CD000DF92EF92FF920F931F93CF93DF93CDB7D5
:101CE000DEB7CA1BDB0B0FB6F894DEBF0FBECDBF4D
:101CF00009942A88398848885F846E847D848C841E
:101D00009B84AA84B984C884DF80EE80FD800C8126
:101D10001B81AA81B981CE0FD11D0FB6F894DEBF09
:101D20000FBECDBFED010895A29FB001B39FC001CA
:101D3000A39F700D811D1124911DB29F700D811DF7
:101D40001124911D089510E0CBE7D0E004C0FE01FE
:101D50000E943C092196CC37D107C9F7F894FFCFF0
:101D60000000AE028000000000004A01C60013011E
:101D7000F10005019101000000007A024A024302CD
:101D800040023D023C02000000002303C600554112
:101D90005254206973205374617274656421000D7C
:021DA0000A0037
:00000001FF
