:100000000C947E000C94A6000C94A6000C94A60000
:100010000C94A6000C94A6000C94A6000C94A600C8
:100020000C94A6000C94A6000C94A6000C94A600B8
:100030000C94A6000C94A6000C94A6000C94A600A8
:100040000C9420050C94A6000C948D070C94BF070B
:100050000C94A6000C94A6000C94A6000C94A60088
:100060000C947E030C94A60000000008000201001E
:100070000003040700000000000000000102040863
:100080001020408001020408102001020408102002
:10009000040404040404040402020202020203032E
:1000A0000303030300000000250028002B000000CC
:1000B0000000240027002A004E414E494E49545961
:1000C000494E46CDCCCC3D0AD7233C17B7D1387723
:1000D000CC2B329595E6241FB14F0A000020410039
:1000E00000C84200401C4620BCBE4CCA1B0E5AAE83
:1000F000C59D7400C800FA02EF07DE0011241FBE80
:10010000CFEFD8E0DEBFCDBF11E0A0E0B1E0E0E589
:10011000F5E202C005900D92AE35B107D9F722E0A5
:10012000AEE5B1E001C01D92A93EB207E1F710E0D3
:10013000CAEFD0E004C02297FE010E94650EC43FC2
:10014000D107C9F70E9433080C949B120C9400004D
:1001500026E040E05BE460E070E086E492E00E942C
:100160002B0761E0809106010E94D90561E08DE0D6
:100170000E94D90561E08CE00E94D90561E08AE027
:100180000E94D90568E071E086E492E00C948D0845
:100190000F9300E022E040E167E281E791E00E94F6
:1001A000AB046EE471E08AE691E00E94AB0A6EE473
:1001B00071E084E691E00F910C94AB0A84E691E043
:1001C0000E943D0A8AE691E00C943D0A4F925F92AC
:1001D0006F927F928F929F92AF92BF92CF92DF9257
:1001E000EF92FF920F931F93CF93DF93CDB7DEB7BC
:1001F000AC970FB6F894DEBF0FBECDBFADB6BEB69E
:1002000086E492E00E944806181619060CF017C101
:1002100086E492E00E946106182F809370018F326D
:10022000A9F06AE671E0CE0101960E940E0B612FE3
:10023000CE0101960E947A0BBC018AE691E00E94F1
:10024000F70ACE0101960E943D0AF9C08DB69EB60E
:1002500060E28AE691E00E94CE0B90936101809368
:1002600060019C0140E050E06AE671E0CE01019639
:100270000E94D20BCE0101960E94170C70935F0171
:1002800060935E01CE0101960E943D0A809160015B
:100290009091610101969093630180936201809136
:1002A0005E0190915F01880F991F880F991F2DB7EC
:1002B0003EB7281B390B0FB6F8943EBF0FBE2DBFBB
:1002C0000DB71EB70F5F1F4F6EE471E0CE0187962A
:1002D0000E94AB0A6801E12CF12C80915E019091A3
:1002E0005F01E816F9060CF062C04091620150917E
:1002F000630160E28AE691E00E94B20B9093610193
:100300008093600140916201509163019C016AE613
:1003100071E0CE0181960E94D20BBE016F5D7F4FCE
:10032000CE0187960E94170BCE0181960E943D0A4E
:1003300020E030E040E250E0BE016F5F7F4FCE0131
:1003400087960E94880BCE0101960E945A102B01BD
:100350003C01F60161937193819391936F0169E17F
:1003600071E086E492E00E9480084AE050E0B70124
:1003700086E492E00E9438096FE171E086E492E041
:100380000E94800822E030E0B301A20186E492E0FE
:100390000E942B0A809160019091610101969093D7
:1003A000630180936201FFEFEF1AFF0A96CF20E00E
:1003B00030E040E85FE3F8016081718182819381E0
:1003C0000E94870C811102C061E001C060E08DE0F5
:1003D0000E94120620E030E040E85FE3F80164810B
:1003E0007581868197810E94870C811102C061E02E
:1003F00001C060E08AE00E94120620E030E040E8A0
:100400005FE3F80160857185828593850E94870C82
:10041000811102C061E001C060E08CE00E94120620
:100420006EE471E08AE691E00E94230BCE0187968C
:100430000E943D0A0FB6F8949EBE0FBE8DBE10926C
:1004400063011092620110926101109260010FB677
:10045000F894BEBE0FBEADBEAC960FB6F894DEBF2C
:100460000FBECDBFDF91CF911F910F91FF90EF9005
:10047000DF90CF90BF90AF909F908F907F906F90C4
:100480005F904F9008958091AD0190E02091AE0172
:10049000821B910908952091AE018091AD0128172A
:1004A00050F4E22FF0E0E155FE4F808190E02F5FA5
:1004B0002093AE0108958FEF9FEF0895E091AE0174
:1004C0008091AD01E81730F4F0E0E155FE4F8081F6
:1004D00090E008958FEF9FEF08950895CF92DF92F7
:1004E000EF92FF920F931F93CF93DF937C01CB0189
:1004F0008A0120918901222389F0EB016B01C40E4E
:10050000D51ECC15DD0569F06991D701ED91FC91FF
:100510000190F081E02DC7010995F3CF642F0E946F
:100520005503C801DF91CF911F910F91FF90EF907C
:10053000DF90CF900895CF93DF931F92CDB7DEB7B2
:100540006983209189012223D1F020918A012032F0
:1005500040F021E030E0FC013383228380E090E032
:1005600015C080918B01E82FF0E0E457FE4F998190
:1005700090838F5F80938B0180938A0105C061E037
:10058000CE0101960E94550381E090E00F90DF912B
:10059000CF910895FC011382128248EE53E060E08F
:1005A00070E0448355836683778388E291E091838A
:1005B0008083089581E0809389016093AC0110925B
:1005C0008B0110928A0108950F93062F21E040912C
:1005D0008A016CE871E08091AC010E94FE021092E9
:1005E0008B0110928A01109289010F91089561E0A8
:1005F0000C94E4028DE791E00C94CA020F9341320F
:1006000008F04AC090913C029111FCCF92E0909387
:100610003C0200933A029FEF9093CF011092140294
:1006200040931302FB0165E172E0DB019A2F961BF8
:10063000941718F491919D93F9CF10923B029091E9
:100640003B02880F892B80933B02809139028130D5
:1006500061F41092390280913B028093BB0080913B
:10066000BC0083FDF8CF85EC01C085EE8093BC0013
:10067000222321F080913C028230E1F38091CF016E
:100680008F3F61F08091CF01803251F08091CF0196
:10069000803341F483E007C081E005C080E003C0FF
:1006A00082E001C084E00F910895613298F42091B6
:1006B0003C02243089F46093F101FC0183EF91E066
:1006C000DC012A2F281B261718F421912D93F9CF2E
:1006D00080E0089581E0089582E0089585ED80939B
:1006E000BC008091BC0084FDFCCF10923C020895B8
:1006F00085EC8093BC0010923C0208951F920F92EB
:100700000FB60F9211242F933F934F935F936F93E4
:100710007F938F939F93AF93BF93EF93FF938091BA
:10072000B900887F803609F49EC078F5883209F4D4
:100730005DC090F4803109F456C038F4882309F480
:10074000F5C0883009F44FC0F5C0883109F44EC0B7
:10075000803209F45FC0EEC0803409F46AC058F4F6
:10076000803309F457C0883309F0E4C08093CF0187
:100770000E947803DFC0803509F44FC0883509F442
:100780005DC0883409F0D6C0D3C0883909F4C4C02C
:10079000A8F4883709F467C038F4883609F463C0D0
:1007A000803709F460C0C6C0883809F4B5C0803904
:1007B00009F45FC0803809F0BDC05BC0803B09F41C
:1007C00083C038F4803A09F466C0883A09F47CC0E2
:1007D000B1C0803C09F4A4C0883C09F4A1C0883BA6
:1007E00009F487C0A7C080913B0210C09091140209
:1007F00080911302981770F5E091140281E08E0F3A
:1008000080931402F0E0EB5EFD4F80818093BB008B
:1008100085EC83C08093CF018BC0E091140281E00E
:100820008E0F809314028091BB00F0E0EB5EFD4FD1
:10083000808390911402809113026BC0E0911402A6
:1008400081E08E0F809314028091BB00F0E0EB5E9C
:10085000FD4F808380913A0281116AC081E08093CC
:10086000390284EA5EC083E080933C021092D0019A
:10087000CFCF8091D001803208F04EC0E091D001FE
:1008800081E08E0F8093D0018091BB00F0E0EF52A9
:10089000FE4F8083BDCF0E9478038091D0018032CB
:1008A00030F4E091D001F0E0EF52FE4F1082609101
:1008B000D00170E0E0913502F091360281ED91E0D7
:1008C00009951092D00136C084E080933C021092CA
:1008D000F2011092F101E0913702F091380209958E
:1008E0008091F101811105C081E08093F1011092A6
:1008F000F301E091F20181E08E0F8093F201F0E0CC
:10090000ED50FE4F80818093BB009091F201809169
:10091000F101981708F47CCF85E88093BC000AC0E9
:1009200085EC8093BC0010923C0204C01092CF0171
:100930000E946E03FF91EF91BF91AF919F918F91B4
:100940007F916F915F914F913F912F910F900FBECB
:100950000F901F9018950F93FC011382128288E369
:1009600091E091838083648340872187028788E0B8
:1009700083870F9108951F93CF93DF93EC01162F78
:100980006C818DE791E00E94DA02E0917D01F091A7
:100990007E016B85612B0190F081E02D8DE791E068
:1009A00009958DE791E0DF91CF911F910C94F702AB
:1009B0001F93CF93DF93EC01162F64600E94BB045A
:1009C00081E090E00E946A05612F6B7FCE010E945A
:1009D000BB0482E390E0DF91CF911F910C946A05F4
:1009E0001F93CF93DF93EC01162F0E94BB04612F5E
:1009F000CE01DF91CF911F910C94D804EF92FF921A
:100A00001F93CF93DF931F92CDB7DEB77C01162FD4
:100A1000607F642B49830E94F00480E1189FB0013D
:100A200011244981642BC7010F90DF91CF911F9151
:100A3000FF90EF900C94F00441E00E94FE040895B2
:100A40001F920F920FB60F9211242F933F938F9303
:100A50009F93AF93BF9380913E0290913F02A091EC
:100A60004002B091410230913D0223E0230F2D3727
:100A700020F40196A11DB11D05C026E8230F0296A2
:100A8000A11DB11D20933D0280933E0290933F0231
:100A9000A0934002B09341028091420290914302A0
:100AA000A0914402B09145020196A11DB11D809311
:100AB000420290934302A0934402B0934502BF9137
:100AC000AF919F918F913F912F910F900FBE0F90FB
:100AD0001F9018958230910538F0880F991F880F64
:100AE000991F05970197F1F70895789484B582606E
:100AF00084BD84B5816084BD85B5826085BD85B5C2
:100B0000816085BDEEE6F0E0808181608083E1E870
:100B1000F0E01082808182608083808181608083A8
:100B2000E0E8F0E0808181608083E1EBF0E08081AB
:100B300084608083E0EBF0E0808181608083EAE77D
:100B4000F0E0808184608083808182608083808106
:100B5000816080838081806880831092C1000895C5
:100B6000833081F028F4813099F08230A1F008952B
:100B70008730A9F08830B9F08430D1F480918000BA
:100B80008F7D03C0809180008F77809380000895CF
:100B900084B58F7702C084B58F7D84BD0895809120
:100BA000B0008F7703C08091B0008F7D8093B0003C
:100BB0000895CF93DF9390E0FC01E458FF4F249118
:100BC000FC01E057FF4F8491882349F190E0880FA2
:100BD000991FFC01E255FF4FA591B4918C559F4F91
:100BE000FC01C591D4919FB7611108C0F8948C9114
:100BF000209582238C93888182230AC0623051F42D
:100C0000F8948C91322F309583238C938881822B9A
:100C1000888304C0F8948C91822B8C939FBFDF91C2
:100C2000CF9108950F931F93CF93DF931F92CDB76A
:100C3000DEB7282F30E0F901E859FF4F8491F90120
:100C4000E458FF4F1491F901E057FF4F049100233E
:100C5000C9F0882321F069830E94B0056981E02FE3
:100C6000F0E0EE0FFF1FEC55FF4FA591B4919FB739
:100C7000F8948C91611103C01095812301C0812BE0
:100C80008C939FBF0F90DF91CF911F910F9108958B
:100C9000FC01818D228D90E0805C9F4F821B910929
:100CA0008F7399270895FC01918D828D981731F0EB
:100CB000828DE80FF11D858D90E008958FEF9FEFF5
:100CC0000895FC01918D828D981761F0828DDF016E
:100CD000A80FB11D5D968C91928D9F5F9F73928F2F
:100CE00090E008958FEF9FEF089585EE97E0892BB0
:100CF00049F080E090E0892B29F00E94E5078111FE
:100D00000C9400000895FC01848DDF01A80FB11D33
:100D1000A35ABF4F2C91848D90E001968F73992731
:100D2000848FA689B7892C93A089B1898C9180641E
:100D30008C93938D848D981306C00288F389E02DDF
:100D400080818F7D80830895CF93DF93EC01888D20
:100D50008823C9F0EA89FB89808185FD05C0A889BF
:100D6000B9898C9186FD0FC00FB607FCF5CF808145
:100D700085FFF2CFA889B9898C9185FFEDCFCE018F
:100D80000E948306E7CFDF91CF910895CF92DF9243
:100D9000FF920F931F93CF93DF931F92CDB7DEB7D0
:100DA0006C0181E0D60158968C9358975B969C9184
:100DB0005B975C968C915C97981307C05096ED9169
:100DC000FC915197808185FD2EC0F601038D10E0C6
:100DD0000F5F1F4F0F731127F02EF601848DF8124D
:100DE00011C00FB607FCF9CFD6015096ED91FC91DA
:100DF0005197808185FFF1CFC60169830E948306E8
:100E00006981EBCF838DE80FF11DE35AFF4F6083BB
:100E1000D6015B960C935B975296ED91FC9153979C
:100E2000808180620CC0D6015696ED91FC91579757
:100E300060835096ED91FC9151978081806480830E
:100E400081E090E00F90DF91CF911F910F91FF9083
:100E5000DF90CF900895BF92CF92DF92EF92FF92F2
:100E6000CF93DF93EC016A017B01B22EE889F98907
:100E700082E08083411581EE580761057105A1F07C
:100E800060E079E08DE390E0A70196010E94410EB9
:100E900021503109410951095695479537952795B4
:100EA000211580E1380798F0E889F989108260E817
:100EB00074E88EE190E0A70196010E94410E215056
:100EC0003109410951095695479537952795EC8584
:100ED000FD853083EE85FF852083188EEC89FD89A2
:100EE000B082EA89FB89808180618083EA89FB89FD
:100EF000808188608083EA89FB8980818068808323
:100F0000EA89FB8980818F7D8083DF91CF91FF907B
:100F1000EF90DF90CF90BF9008951F920F920FB681
:100F20000F9211242F938F939F93EF93FF93E09150
:100F30005602F09157028081E0915C02F0915D02CF
:100F400082FD12C0908180915F028F5F8F7320912C
:100F50006002821751F0E0915F02F0E0EA5BFD4F22
:100F6000958F80935F0201C08081FF91EF919F91E7
:100F70008F912F910F900FBE0F901F9018951F9279
:100F80000F920FB60F9211242F933F934F935F93BD
:100F90006F937F938F939F93AF93BF93EF93FF9341
:100FA00086E492E00E948306FF91EF91BF91AF919A
:100FB0009F918F917F916F915F914F913F912F9171
:100FC0000F900FBE0F901F90189586E492E00E943C
:100FD000480621E0892B09F420E0822F0895109221
:100FE00049021092480288EE93E0A0E0B0E08093BE
:100FF0004A0290934B02A0934C02B0934D0280E4BE
:1010000091E0909347028093460285EC90E09093A4
:1010100053028093520284EC90E0909355028093A7
:10102000540280EC90E0909357028093560281EC3A
:1010300090E0909359028093580282EC90E0909354
:101040005B0280935A0286EC90E090935D0280935D
:101050005C0210925F021092600210926102109284
:101060006202089508950E9475050E9432080E9448
:10107000A800C5E7D6E00E94E6002097E1F30E94B1
:101080007506F9CFCF92DF92EF92FF920F931F93E5
:10109000CF93DF937C016A01EB0100E010E00C15B7
:1010A0001D0571F06991D701ED91FC910190F081DE
:1010B000E02DC7010995892B19F00F5F1F4FEFCF66
:1010C000C801DF91CF911F910F91FF90EF90DF90BA
:1010D000CF9008956115710581F0DB010D9000201E
:1010E000E9F7AD0141505109461B570BDC01ED9169
:1010F000FC910280F381E02D099480E090E0089556
:101100000C946A08DC01ED91FC910190F081E02DD6
:1011100009946CE471E00C946A080F931F93CF93C9
:10112000DF93EC010E946A088C01CE010E948908BD
:10113000800F911FDF91CF911F910F9108958F9292
:101140009F92AF92BF92DF92EF92FF920F931F9305
:10115000CF93DF93CDB7DEB7A1970FB6F894DEBF7C
:101160000FBECDBF7C01F42FD52ECB0119A22230AA
:1011700008F42AE08E010F5D1F4F822E912CA12CC6
:10118000B12C6F2F7D2DA50194010E94410EF22FED
:10119000D32ECA01015011096A3014F4E0E301C0F2
:1011A000E7E3E60FD801EC93232B242B252B49F7FB
:1011B000B801C7010E946A08A1960FB6F894DEBF75
:1011C0000FBECDBFDF91CF911F910F91FF90EF9098
:1011D000DF90BF90AF909F908F900895CF92DF9255
:1011E000EF92FF920F931F93CF93DF93EC016A016D
:1011F0007B012115310579F4E881F9810190F081B5
:10120000E02D642FDF91CF911F910F91FF90EF9010
:10121000DF90CF9009942A303105E9F477FF1AC0A6
:101220006DE20E9482088C0144275527BA014C19AF
:101230005D096E097F092AE0CE010E949F08800F98
:10124000911FDF91CF911F910F91FF90EF90DF9051
:10125000CF9008952AE0B701A601CE01DF91CF918A
:101260001F910F91FF90EF90DF90CF900C949F080B
:101270009A01AB01662757FD6095762F0C94EE0816
:101280004F925F926F927F928F929F92AF92BF9296
:10129000CF92DF92EF92FF920F931F93CF93DF9342
:1012A000EC016A017B01B22E9A01AB01C701B601C4
:1012B0000E943D0E882319F06FE471E027C02601DB
:1012C0003701E89477F82FEF3FEF4FE75FE7C3016F
:1012D000B2010E943D0E81110DC02FEF3FEF4FE78D
:1012E0005FE7C301B2010E94870C18161CF463E586
:1012F00071E00CC02FEF3FEF4FE75FE4C701B6018D
:101300000E94D60D1816ACF467E571E0CE01DF91AE
:10131000CF911F910F91FF90EF90DF90CF90BF90F2
:10132000AF909F908F907F906F905F904F900C94B4
:101330006A082FEF3FEF4FE75FECC701B6010E944D
:10134000870C87FDE1CF20E030E0A901C701B6019D
:101350000E94870C87FF0AC06DE2CE010E948208BE
:101360008C01F7FAF094F7F8F09402C000E010E076
:10137000A12C60E070E080E09FE3AB1441F020E03E
:1013800030E040E251E40E948B0CA394F6CF9B0125
:10139000AC01C701B6010E94230C6B017C010E94C5
:1013A000F80C2B013C010E94240D9B01AC01C701EC
:1013B000B6010E94220C6B017C012AE0B301A2015C
:1013C000CE010E949F08080F191FBB2039F06BE562
:1013D00071E0CE010E946A08080F191F7B2C77204C
:1013E00041F120E030E040E251E4C701B6010E9443
:1013F000DA0D6B017C010E94F30C4B01AA2497FCCF
:10140000A094BA2C2AE030E0B501A401CE010E94DC
:10141000EE08080F191FC501B4010E94260D9B019B
:10142000AC01C701B6010E94220C6B017C017A94C9
:10143000D6CFC801DF91CF911F910F91FF90EF9010
:10144000DF90CF90BF90AF909F908F907F906F90E4
:101450005F904F9008950F931F93CF93DF93EC010C
:101460000E9440098C01CE010E948908800F911FC3
:10147000DF91CF911F910F910895FC01808191819F
:101480000C94010FCF93DF93EC0188819981009731
:1014900011F00E94010F198218821D821C821B828A
:1014A0001A82DF91CF9108950F931F93CF93DF930B
:1014B000EC018B016F5F7F4F888199810E94900FB3
:1014C000009731F0998388831B830A8381E001C0F0
:1014D00080E0DF91CF911F910F910895CF93DF931B
:1014E000EC0188819981892B29F08A819B8186175B
:1014F000970760F4CE010E94540A882341F08C8142
:101500009D81892B19F4E881F981108281E0DF91B6
:10151000CF910895EF92FF920F931F93CF93DF9394
:10152000EC017B018A01BA010E946E0A811104C09C
:10153000CE010E94420A07C01D830C83B701888137
:1015400099810E94A110CE01DF91CF911F910F913F
:10155000FF90EF900895FC01118210821382128295
:10156000158214826115710559F0FB01019000206C
:10157000E9F7AF0141505109461B570B0C948A0AF9
:1015800008950F931F93CF93DF938C01EB01FC0120
:1015900080819181009799F0428153812C813D8116
:1015A0004217530750F0688179810E94A1108C8105
:1015B0009D81F8019583848313C00E94010F888167
:1015C0009981F801918380838A819B8193838283AF
:1015D0008C819D8195838483198218821B821A8253
:1015E0001D821C82DF91CF911F910F910895CF939F
:1015F000DF93EC01FB018617970761F06081718131
:101600006115710529F0448155810E948A0A02C042
:101610000E94420ACE01DF91CF910895FC01118210
:10162000108213821282158214820C94F70ACF93CF
:10163000DF93EC018617970711F00E94C10ACE01D3
:10164000DF91CF910895CF93DF93EC016115710580
:1016500061F0FB0101900020E9F7AF014150510911
:10166000461B570B0E948A0A02C00E94420ACE0102
:10167000DF91CF910895EF92FF920F931F93CF9335
:10168000DF93EC017B010C811D816115710511F463
:1016900080E016C04115510591F0040F151FB801E7
:1016A0000E946E0A8823A1F3288139818C819D8153
:1016B000B701820F931F0E94A1101D830C8381E04C
:1016C000DF91CF911F910F91FF90EF900895CF93ED
:1016D000DF9300D0CDB7DEB769831A8241E050E0D6
:1016E000BE016F5F7F4F0E943B0B0F900F90DF9109
:1016F000CF910895CF93DF93EC010E94670B811186
:1017000003C0CE010E94420ACE01DF91CF9108951D
:101710000F931F93CF93DF93EB0141155105E9F030
:101720002097D9F0FC016481758126173707A0F452
:10173000621B730B8A01015011096017710708F4CD
:101740008B01FC0160817181620F731FA801CE01C2
:101750000E94A810C00FD11F1882DF91CF911F9156
:101760000F910895CF93DF93FC01848195814817F1
:10177000590778F4C081D181772767FD7095CE0134
:10178000840F951F0E949610009719F08C1B9D0BDB
:1017900002C08FEF9FEFDF91CF91089540E050E0BE
:1017A0000C94B20BBF92CF92DF92EF92FF920F9305
:1017B0001F93CF93DF936C017B01EA01890124170A
:1017C000350720F48D2FE901042F182F6EE471E006
:1017D000C6010E94AB0AD70114968D919C91159772
:1017E000C817D907C8F48017910708F48C01D701EE
:1017F000ED91FC911197E00FF11FB08010826D9177
:101800007C916C0F7D1FC6010E94230BD701ED91C7
:10181000FC91E00FF11FB082C601DF91CF911F91C3
:101820000F91FF90EF90DF90CF90BF900895FC0153
:1018300080819181009711F00C945E1060E070E05F
:10184000CB0108955058BB27AA270ED075C166D189
:1018500030F06BD120F031F49F3F11F41EF45BC1E6
:101860000EF4E095E7FB51C1E92F77D180F3BA1769
:10187000620773078407950718F071F49EF58FC10E
:101880000EF4E0950B2EBA2FA02D0B01B90190019B
:101890000C01CA01A0011124FF27591B99F0593FDF
:1018A00050F4503E68F11A16F040A22F232F342F27
:1018B0004427585FF3CF469537952795A795F04075
:1018C0005395C9F77EF41F16BA0B620B730B840B8A
:1018D000BAF09150A1F0FF0FBB1F661F771F881F42
:1018E000C2F70EC0BA0F621F731F841F48F487959A
:1018F00077956795B795F7959E3F08F0B3CF939589
:10190000880F08F09927EE0F979587950895D9D0FD
:1019100008F481E008950CD00FC107D140F0FED04B
:1019200030F021F45F3F19F0F0C0511139C1F3C01C
:1019300014D198F39923C9F35523B1F3951B550B93
:10194000BB27AA2762177307840738F09F5F5F4F92
:10195000220F331F441FAA1FA9F333D00E2E3AF0D3
:10196000E0E830D091505040E695001CCAF729D0ED
:10197000FE2F27D0660F771F881FBB1F261737073C
:101980004807AB07B0E809F0BB0B802DBF01FF276C
:1019900093585F4F2AF09E3F510568F0B6C000C1D2
:1019A0005F3FECF3983EDCF3869577956795B795A6
:1019B000F7959F5FC9F7880F911D9695879597F9C1
:1019C0000895E1E0660F771F881FBB1F621773073A
:1019D0008407BA0720F0621B730B840BBA0BEE1F4F
:1019E00088F7E095089504D06894B111D9C008959E
:1019F000BCD088F09F5790F0B92F9927B751A0F02D
:101A0000D1F0660F771F881F991F1AF0BA95C9F792
:101A100012C0B13081F0C3D0B1E00895C0C0672FCB
:101A2000782F8827B85F39F0B93FCCF38695779542
:101A30006795B395D9F73EF490958095709561952B
:101A40007F4F8F4F9F4F0895E89409C097FB3EF456
:101A500090958095709561957F4F8F4F9F4F9923FB
:101A6000A9F0F92F96E9BB279395F6958795779579
:101A70006795B795F111F8CFFAF4BB0F11F460FF39
:101A80001BC06F5F7F4F8F4F9F4F16C0882311F091
:101A900096E911C0772321F09EE8872F762F05C0A5
:101AA000662371F096E8862F70E060E02AF09A9540
:101AB000660F771F881FDAF7880F9695879597F935
:101AC0000895990F0008550FAA0BE0E8FEEF1616CF
:101AD0001706E807F907C0F012161306E407F50722
:101AE00098F0621B730B840B950B39F40A2661F096
:101AF000232B242B252B21F408950A2609F4A14039
:101B0000A6958FEF811D811D089597F99F6780E845
:101B100070E060E008959FEF80EC089500240A943F
:101B20001616170618060906089500240A941216B8
:101B30001306140605060895092E0394000C11F4EB
:101B4000882352F0BB0F40F4BF2B11F460FF04C098
:101B50006F5F7F4F8F4F9F4F089557FD9058440FF1
:101B6000551F59F05F3F71F04795880F97FB991FFC
:101B700061F09F3F79F087950895121613061406B9
:101B8000551FF2CF4695F1DF08C016161706180646
:101B9000991FF1CF86957105610508940895E89421
:101BA000BB2766277727CB0197F908958ADF08F4CA
:101BB0008FEF08950BD0C0CFB1DF28F0B6DF18F05B
:101BC000952309F0A2CFA7CF1124EACFC6DFA0F357
:101BD000959FD1F3950F50E0551F629FF001729FC2
:101BE000BB27F00DB11D639FAA27F00DB11DAA1FE1
:101BF000649F6627B00DA11D661F829F2227B00D2E
:101C0000A11D621F739FB00DA11D621F839FA00DB8
:101C1000611D221F749F3327A00D611D231F849F08
:101C2000600D211D822F762F6A2F11249F5750405F
:101C30008AF0E1F088234AF0EE0FFF1FBB1F661FFA
:101C4000771F881F91505040A9F79E3F510570F0B3
:101C50005CCFA6CF5F3FECF3983EDCF3869577959B
:101C60006795B795F795E7959F5FC1F7FE2B880FAE
:101C7000911D9695879597F9089523DF880B990B09
:101C80000895A1E21A2EAA1BBB1BFD010DC0AA1FBD
:101C9000BB1FEE1FFF1FA217B307E407F50720F0D5
:101CA000A21BB30BE40BF50B661F771F881F991F50
:101CB0001A9469F760957095809590959B01AC0199
:101CC000BD01CF010895EE0FFF1F0590F491E02DA7
:101CD0000994CF93DF938230910510F482E090E075
:101CE000E091E502F091E60220E030E0A0E0B0E013
:101CF000309739F14081518148175907B8F048179A
:101D0000590771F482819381109729F013969C935F
:101D10008E9312972CC09093E6028093E50227C021
:101D20002115310531F04217530718F0A901DB01E5
:101D300001C0EF019A01BD01DF010280F381E02DB6
:101D4000D7CF21153105F9F0281B390B2430310587
:101D500080F48A819B816115710521F0FB019383D9
:101D6000828304C09093E6028093E502FE013296DE
:101D700044C0FE01E20FF31F819391932250310979
:101D8000398328833AC02091E3023091E402232B67
:101D900041F420910201309103013093E402209339
:101DA000E30220910001309101012115310541F438
:101DB0002DB73EB74091040150910501241B350B0E
:101DC000E091E302F091E402E217F307A0F42E1B86
:101DD0003F0B2817390778F0AC014E5F5F4F24178F
:101DE000350748F04E0F5F1F5093E4024093E30223
:101DF0008193919302C0E0E0F0E0CF01DF91CF91B9
:101E00000895CF93DF93009709F487C0FC013297C0
:101E100013821282C091E502D091E602209781F4EC
:101E200020813181280F391F8091E3029091E402D3
:101E30008217930779F5F093E402E093E3026DC013
:101E4000DE0120E030E0AE17BF0750F412964D914E
:101E50005C9113979D014115510509F1DA01F3CF0A
:101E6000B383A28340815181840F951F8A179B07FA
:101E700071F48D919C911197840F951F0296918317
:101E8000808312968D919C91139793838283211561
:101E9000310529F4F093E602E093E5023EC0D90152
:101EA0001396FC93EE9312974D915D91A40FB51F7D
:101EB000EA17FB0779F480819181840F951F0296C0
:101EC000D90111969C938E938281938113969C9352
:101ED0008E931297E0E0F0E08A819B81009719F0E1
:101EE000FE01EC01F9CFCE01029628813981820FE3
:101EF000931F2091E3023091E4022817390769F417
:101F0000309729F41092E6021092E50202C0138283
:101F10001282D093E402C093E302DF91CF9108953F
:101F2000A0E0B0E0E6E9FFE00C945912EC01CB012F
:101F3000209719F40E94690EB8C0FE01E60FF71F42
:101F40009E0122503109E217F30708F4ACC0D90111
:101F50000D911C91119706171707B8F00530110560
:101F600008F49FC0A801445051094617570708F4C8
:101F700098C002501109061B170B019311936D9322
:101F80007C93CF010E94010F8CC05B01A01AB10AA3
:101F90004E01800E911EA091E502B091E602612CE7
:101FA000712C60E070E0109709F449C0A815B905DC
:101FB000C9F5ED90FC901197670142E0C40ED11C69
:101FC000CA14DB0478F147018A189B08640142E0D7
:101FD000C40ED11C1296BC9012971396AC91B5E02A
:101FE000CB16D10440F0B282A38391828082D901C2
:101FF0008D939C9309C00E5F1F4F0E0D1F1DF9019D
:1020000011830083EB2DFA2F6115710531F0DB018F
:102010001396FC93EE93129744C0F093E602E0937C
:10202000E5023FC06D917C9111976616770608F422
:102030003B01BD0112960D90BC91A02DB4CF6091D3
:10204000E3027091E40268157905E9F468167906EF
:10205000D0F440910001509101014115510541F426
:102060004DB75EB76091040170910501461B570B97
:10207000E417F507C0F4F093E402E093E302F901FA
:10208000918380830EC00E94690E7C01009759F0F5
:10209000A801BE010E948D10CE010E94010FC70150
:1020A00004C0CE0102C080E090E0CDB7DEB7EEE024
:1020B0000C947512662777270C94CC101F93FC01A3
:1020C00099278827BC01E89411911032E9F319305F
:1020D00010F01E30C8F31B3251F01D3249F46894E1
:1020E00006C00E94B710610F711D811D911D1191D5
:1020F00010531A30B0F33EF4909580957095619529
:102100007F4F8F4F9F4F1F9108959111A8C180322B
:1021100019F089508550D0F70895FB01DC0102C009
:1021200001900D9241505040D8F70895FC018191E3
:10213000861721F08823D9F7992708953197CF0181
:102140000895FB01DC0101900D920020E1F7089554
:10215000FB01DC014150504048F001900D920020FD
:10216000C9F701C01D9241505040E0F70895592F22
:10217000482F372F262F660F771F881F991F660F4E
:10218000771F881F991F620F731F841F951F660F8B
:10219000771F881F991F0895A0E0B0E0E2EDF0E1FD
:1021A0000C945B128B016115710521F0DB018C939E
:1021B00011969C93EC015E01BFEFAB1ABB0A75014F
:1021C000C8808C2D90E00E948510892B11F0E501CC
:1021D000F2CFEDE2CE1208C07E01F2E0EF0EF11C6C
:1021E000C980DD24D39409C02BE2C21205C07E0150
:1021F00042E0E40EF11CC980D12CE701219743E0B5
:1022000050E060EC70E0CE010E943212892BC1F4E4
:10221000239645E050E06BEB70E0CE010E94321255
:10222000892B09F425960115110519F0D801CD93D4
:10223000DC93D11006C160E070E080E89FE70AC13E
:1022400043E050E068EB70E0CE010E943212892B2F
:1022500059F40115110509F4F9C0B2E0EB0EF11CB7
:10226000F801F182E082F2C0F70160E070E0CB019A
:10227000C0E0D0E07F01A0EDAA2EAC0C29E02A1529
:1022800030F14D2D4260B42E2D2D2870D2FE04C0A9
:10229000211125C0219623C021112197A5E0B0E08E
:1022A0009B01AC010E944A12660F771F881F991F7D
:1022B0006A0D711D811D911D6839A9E97A078A0788
:1022C000A9E19A0760F0BD2DB660BB2E08C02EEFC5
:1022D000A2120AC0D3FC50C04D2D4860B42E3196D6
:1022E000D701CC90DB2CC6CF2C2D2F7D253409F0C7
:1022F00043C0A081AD3241F4BD2DB061DB2E7F0122
:1023000022E0E20EF11C0CC07F01AB3231F04FEF46
:10231000E41AF40A21E030E006C0A2E0EA0EF11C63
:10232000A18122E030E0A053AA3018F0E21AF30AAB
:1023300023C0F70120E030E02038BCE03B075CF42C
:10234000A901440F551F440F551F240F351F220F9D
:10235000331F2A0F311DAF014F5F5F4F7A01A081FC
:10236000A053AA3010F4FA01E7CFD4FE03C0319590
:1023700021953109C20FD31FD1FE09C001151105E6
:1023800031F0E1E0EE1AF108D801ED92FC920E94E2
:10239000240D2D2D2370233019F04B015C0106C054
:1023A0004B015C01B7FAB094B7F8B09420E030E08C
:1023B000A901C501B4010E94870C882309F43EC01D
:1023C000D7FF06C0D195C195D10907ED10E002C035
:1023D0000FEE10E06801B8E1CB1AD10890E2E92EC7
:1023E000F12CCE15DF0574F0F8012591359145915A
:1023F0005491C501B4010E94DA0D4B015C01CE1964
:10240000DF09EFCF04501109F594E7940C151D0571
:1024100041F78A2D880F8B2D881F8F3F49F020E0D0
:1024200030E0A901C501B4010E94870C811106C0EA
:1024300082E290E09093E8028093E702C501B40144
:1024400009C060E070E080E89FEF04C060E070E0E9
:1024500080EC9FE7CDB7DEB7ECE00C9477129927BC
:1024600088270895FB01DC014150504088F08D9190
:1024700081341CF08B350CF4805E659161341CF066
:102480006B350CF4605E861B611171F3990B089536
:10249000881BFCCF0E948C12A59F900DB49F900DBD
:1024A000A49F800D911D112408952F923F924F9269
:1024B0005F926F927F928F929F92AF92BF92CF92D4
:1024C000DF92EF92FF920F931F93CF93DF93CDB7DD
:1024D000DEB7CA1BDB0B0FB6F894DEBF0FBECDBF55
:1024E00009942A88398848885F846E847D848C8426
:1024F0009B84AA84B984C884DF80EE80FD800C812F
:102500001B81AA81B981CE0FD11D0FB6F894DEBF11
:102510000FBECDBFED010895A29FB001B39FC001D2
:10252000A39F700D811D1124911DB29F700D811DFF
:102530001124911D089510E0CAEFD0E004C0FE01FF
:102540000E94650E2296CC3FD107C9F7F894FFCFC1
:102550000000E902800005005541525420697320B3
:10256000537461727465642100646174615B005D21
:10257000203D2000000000009B026E0243024B023F
:102580005E026D02000000001C0542080000000011
:10259000C6064208480661065306A4060D0A006EE8
:0E25A000616E00696E66006F7666002E0000A8
:00000001FF
