:100000000C947E000C94A6000C94A6000C94A60000
:100010000C94A6000C94A6000C94A6000C94A600C8
:100020000C94A6000C94A6000C94A6000C94A600B8
:100030000C94A6000C94A6000C94A6000C94A600A8
:100040000C9448050C94A6000C94B5070C94E70793
:100050000C94A6000C94A6000C94A6000C94A60088
:100060000C94A6030C94A6000000000800020100F6
:100070000003040700000000000000000102040863
:100080001020408001020408102001020408102002
:10009000040404040404040402020202020203032E
:1000A0000303030300000000250028002B000000CC
:1000B0000000240027002A004E414E494E49545961
:1000C000494E46CDCCCC3D0AD7233C17B7D1387723
:1000D000CC2B329595E6241FB14F0A000020410039
:1000E00000C84200401C4620BCBE4CCA1B0E5AAE83
:1000F000C59D7400D40022031708EA0011241FBE16
:10010000CFEFD8E0DEBFCDBF11E0A0E0B1E0EEE47C
:10011000F0E202C005900D92A235B107D9F722E0B6
:10012000A2E5B1E001C01D92AD3DB207E1F710E0DC
:10013000CAEFD0E004C02297FE010E94E40BC43F46
:10014000D107C9F70E945B080C941A100C940000A8
:1001500026E040E05BE460E070E08AE392E00E9429
:10016000530761E0809106010E94010661E08DE085
:100170000E94010661E08CE00E94010661E08BE0D4
:100180000E94010661E08AE00E94010661E082E0CF
:100190000E94010661E083E00E94010668E071E0D0
:1001A0008AE392E00C94AC080F9300E022E040E177
:1001B00067E285E691E00E94D30463E471E08EE596
:1001C00091E00E942C0963E471E088E591E00F91D1
:1001D0000C942C0988E591E00E94BE088EE591E020
:1001E0000C94BE088F929F92AF92BF92CF92DF92F3
:1001F000EF92FF920F931F93CF93DF93CDB7DEB7AC
:10020000AC970FB6F894DEBF0FBECDBFADB6BEB68D
:100210008AE392E00E947006181619060CF03BC1A2
:100220008AE392E00E948906182F809364018F323E
:10023000A9F06EE571E0CE0101960E948F09612F51
:10024000CE0101960E94FB09BC018EE591E00E945F
:100250007809CE0101960E94BE081DC18DB69EB6DA
:1002600060E28EE591E00E944F0A909355018093E1
:1002700054019C0140E050E06EE571E0CE01019632
:100280000E94530ACE0101960E94980A709353016E
:1002900060935201CE0101960E94BE0880915401E4
:1002A000909155010196909357018093560180914A
:1002B000520190915301880F991F880F991F2DB7F4
:1002C0003EB7281B390B0FB6F8943EBF0FBE2DBFAB
:1002D0000DB71EB70F5F1F4F63E471E0CE01879625
:1002E0000E942C096801E12CF12C8091520190911F
:1002F0005301E816F9060CF045C0409156015091A3
:10030000570160E28EE591E00E94330A9093550117
:100310008093540140915601509157019C016EE524
:1003200071E0CE0181960E94530ABE016F5D7F4F3E
:10033000CE0187960E949809CE0181960E94BE0840
:1003400020E030E040E250E0BE016F5F7F4FCE0121
:1003500087960E94090ACE0101960E94D90DF601E6
:1003600061937193819391936F0180915401909166
:10037000550101969093570180935601FFEFEF1AB4
:10038000FF0AB3CFF801C080D180E280F38020E083
:1003900030E0A901C701B6010E94590B181664F498
:1003A00020E030E040E85FE3C701B6010E94A30A05
:1003B00087FF02C061E001C060E08BE00E943A0666
:1003C00020E030E040E85FE3C701B6010E94A30AE5
:1003D000811102C061E001C060E08DE00E943A0638
:1003E00020E030E040E85FE3F801648175818681B8
:1003F00097810E94A30A811102C061E001C060E000
:100400008AE00E943A0620E030E040E85FE3F8012D
:1004100060857185828593850E94A30A811102C03F
:1004200061E001C060E08CE00E943A0620E030E02C
:1004300048EB51E4F80164857585868597850E94AF
:10044000590B87FD02C061E001C060E082E00E94BC
:100450003A0620E030E040E85FE3F8016089718906
:10046000828993890E94A30A811102C061E001C0C0
:1004700060E083E00E943A0663E471E08EE591E07B
:100480000E94A409CE0187960E94BE080FB6F89478
:100490009EBE0FBE8DBE1092570110925601109253
:1004A0005501109254010FB6F894BEBE0FBEADBEFA
:1004B000AC960FB6F894DEBF0FBECDBFDF91CF91E3
:1004C0001F910F91FF90EF90DF90CF90BF90AF9072
:1004D0009F908F9008958091A10190E02091A201BA
:1004E000821B910908952091A2018091A1012817F2
:1004F00050F4E22FF0E0ED55FE4F808190E02F5F49
:100500002093A20108958FEF9FEF0895E091A2013B
:100510008091A101E81730F4F0E0ED55FE4F8081A5
:1005200090E008958FEF9FEF08950895CF92DF92A6
:10053000EF92FF920F931F93CF93DF937C01CB0138
:100540008A0120917D01222389F0EB016B01C40E09
:10055000D51ECC15DD0569F06991D701ED91FC91AF
:100560000190F081E02DC7010995F3CF642F0E941F
:100570007D03C801DF91CF911F910F91FF90EF9004
:10058000DF90CF900895CF93DF931F92CDB7DEB762
:10059000698320917D012223D1F020917E012032B8
:1005A00040F021E030E0FC013383228380E090E0E2
:1005B00015C080917F01E82FF0E0E058FE4F99814F
:1005C00090838F5F80937F0180937E0105C061E0FF
:1005D000CE0101960E947D0381E090E00F90DF91B3
:1005E000CF910895FC011382128248EE53E060E03F
:1005F00070E044835583668377838DE191E0918336
:100600008083089581E080937D016093A001109222
:100610007F0110927E0108950F93062F21E04091F3
:100620007E0160E871E08091A0010E942603109293
:100630007F0110927E0110927D010F91089561E07B
:100640000C940C0381E791E00C94F2020F93413279
:1006500008F04AC0909130029111FCCF92E0909343
:10066000300200932E029FEF9093C3011092080274
:1006700040930702FB0169E072E0DB019A2F961BB1
:10068000941718F491919D93F9CF10922F029091A5
:100690002F02880F892B80932F0280912D028130A9
:1006A00061F410922D0280912F028093BB00809103
:1006B000BC0083FDF8CF85EC01C085EE8093BC00C3
:1006C000222321F0809130028230E1F38091C30136
:1006D0008F3F61F08091C301803251F08091C3015E
:1006E000803341F483E007C081E005C080E003C0AF
:1006F00082E001C084E00F910895613298F4209166
:100700003002243089F46093E501FC0187EE91E02A
:10071000DC012A2F281B261718F421912D93F9CFDD
:1007200080E0089581E0089582E0089585ED80934A
:10073000BC008091BC0084FDFCCF10923002089573
:1007400085EC8093BC001092300208951F920F92A6
:100750000FB60F9211242F933F934F935F936F9394
:100760007F938F939F93AF93BF93EF93FF9380916A
:10077000B900887F803609F49EC078F5883209F484
:100780005DC090F4803109F456C038F4882309F430
:10079000F5C0883009F44FC0F5C0883109F44EC067
:1007A000803209F45FC0EEC0803409F46AC058F4A6
:1007B000803309F457C0883309F0E4C08093C30143
:1007C0000E94A003DFC0803509F44FC0883509F4CA
:1007D0005DC0883409F0D6C0D3C0883909F4C4C0DC
:1007E000A8F4883709F467C038F4883609F463C080
:1007F000803709F460C0C6C0883809F4B5C08039B4
:1008000009F45FC0803809F0BDC05BC0803B09F4CB
:1008100083C038F4803A09F466C0883A09F47CC091
:10082000B1C0803C09F4A4C0883C09F4A1C0883B55
:1008300009F487C0A7C080912F0210C090910802D0
:1008400080910702981770F5E091080281E08E0F01
:1008500080930802F0E0E75FFD4F80818093BB004A
:1008600085EC83C08093C3018BC0E091080281E0D6
:100870008E0F809308028091BB00F0E0E75FFD4F90
:10088000808390910802809107026BC0E09108027A
:1008900081E08E0F809308028091BB00F0E0E75F5B
:1008A000FD4F808380912E0281116AC081E0809388
:1008B0002D0284EA5EC083E0809330021092C4016E
:1008C000CFCF8091C401803208F04EC0E091C401C6
:1008D00081E08E0F8093C4018091BB00F0E0EB5368
:1008E000FE4F8083BDCF0E94A0038091C40180325F
:1008F00030F4E091C401F0E0EB53FE4F10826091C0
:10090000C40170E0E0912902F0912A0285EC91E0A7
:1009100009951092C40136C084E080933002109291
:10092000E6011092E501E0912B02F0912C0209956D
:100930008091E501811105C081E08093E50110926D
:10094000E701E091E60181E08E0F8093E601F0E09F
:10095000E951FE4F80818093BB009091E601809128
:10096000E501981708F47CCF85E88093BC000AC0A5
:1009700085EC8093BC001092300204C01092C30139
:100980000E949603FF91EF91BF91AF919F918F913C
:100990007F916F915F914F913F912F910F900FBE7B
:1009A0000F901F9018950F93FC01138212828DE215
:1009B00091E091838083648340872187028788E068
:1009C00083870F9108951F93CF93DF93EC01162F28
:1009D0006C8181E791E00E940203E0917101F09146
:1009E00072016B85612B0190F081E02D81E791E030
:1009F000099581E791E0DF91CF911F910C941F033E
:100A00001F93CF93DF93EC01162F64600E94E304E1
:100A100081E090E00E949205612F6B7FCE010E94E1
:100A2000E30482E390E0DF91CF911F910C94920553
:100A30001F93CF93DF93EC01162F0E94E304612FE5
:100A4000CE01DF91CF911F910C940005EF92FF92A0
:100A50001F93CF93DF931F92CDB7DEB77C01162F84
:100A6000607F642B49830E94180580E1189FB001C4
:100A700011244981642BC7010F90DF91CF911F9101
:100A8000FF90EF900C94180541E00E942605089510
:100A90001F920F920FB60F9211242F933F938F93B3
:100AA0009F93AF93BF938091320290913302A091B4
:100AB0003402B09135023091310223E0230F2D37FB
:100AC00020F40196A11DB11D05C026E8230F029652
:100AD000A11DB11D20933102809332029093330205
:100AE000A0933402B0933502809136029091370280
:100AF000A0913802B09139020196A11DB11D8093D9
:100B0000360290933702A0933802B0933902BF9116
:100B1000AF919F918F913F912F910F900FBE0F90AA
:100B20001F9018958230910538F0880F991F880F13
:100B3000991F05970197F1F70895789484B582601D
:100B400084BD84B5816084BD85B5826085BD85B571
:100B5000816085BDEEE6F0E0808181608083E1E820
:100B6000F0E0108280818260808380818160808358
:100B7000E0E8F0E0808181608083E1EBF0E080815B
:100B800084608083E0EBF0E0808181608083EAE72D
:100B9000F0E08081846080838081826080838081B6
:100BA000816080838081806880831092C100089575
:100BB000833081F028F4813099F08230A1F00895DB
:100BC0008730A9F08830B9F08430D1F4809180006A
:100BD0008F7D03C0809180008F778093800008957F
:100BE00084B58F7702C084B58F7D84BD08958091D0
:100BF000B0008F7703C08091B0008F7D8093B000EC
:100C00000895CF93DF9390E0FC01E458FF4F2491C7
:100C1000FC01E057FF4F8491882349F190E0880F51
:100C2000991FFC01E255FF4FA591B4918C559F4F40
:100C3000FC01C591D4919FB7611108C0F8948C91C3
:100C4000209582238C93888182230AC0623051F4DC
:100C5000F8948C91322F309583238C938881822B4A
:100C6000888304C0F8948C91822B8C939FBFDF9172
:100C7000CF9108950F931F93CF93DF931F92CDB71A
:100C8000DEB7282F30E0F901E859FF4F8491F901D0
:100C9000E458FF4F1491F901E057FF4F04910023EE
:100CA000C9F0882321F069830E94D8056981E02F6B
:100CB000F0E0EE0FFF1FEC55FF4FA591B4919FB7E9
:100CC000F8948C91611103C01095812301C0812B90
:100CD0008C939FBF0F90DF91CF911F910F9108953B
:100CE000FC01818D228D90E0805C9F4F821B9109D9
:100CF0008F7399270895FC01918D828D981731F09B
:100D0000828DE80FF11D858D90E008958FEF9FEFA4
:100D10000895FC01918D828D981761F0828DDF011D
:100D2000A80FB11D5D968C91928D9F5F9F73928FDE
:100D300090E008958FEF9FEF08958DE098E0892B64
:100D400049F080E090E0892B29F00E940D08811184
:100D50000C9400000895FC01848DDF01A80FB11DE3
:100D6000A35ABF4F2C91848D90E001968F739927E1
:100D7000848FA689B7892C93A089B1898C918064CE
:100D80008C93938D848D981306C00288F389E02D8F
:100D900080818F7D80830895CF93DF93EC01888DD0
:100DA0008823C9F0EA89FB89808185FD05C0A8896F
:100DB000B9898C9186FD0FC00FB607FCF5CF8081F5
:100DC00085FFF2CFA889B9898C9185FFEDCFCE013F
:100DD0000E94AB06E7CFDF91CF910895CF92DF92CB
:100DE000FF920F931F93CF93DF931F92CDB7DEB780
:100DF0006C0181E0D60158968C9358975B969C9134
:100E00005B975C968C915C97981307C05096ED9118
:100E1000FC915197808185FD2EC0F601038D10E075
:100E20000F5F1F4F0F731127F02EF601848DF812FC
:100E300011C00FB607FCF9CFD6015096ED91FC9189
:100E40005197808185FFF1CFC60169830E94AB066F
:100E50006981EBCF838DE80FF11DE35AFF4F60836B
:100E6000D6015B960C935B975296ED91FC9153974C
:100E7000808180620CC0D6015696ED91FC91579707
:100E800060835096ED91FC915197808180648083BE
:100E900081E090E00F90DF91CF911F910F91FF9033
:100EA000DF90CF900895BF92CF92DF92EF92FF92A2
:100EB000CF93DF93EC016A017B01B22EE889F989B7
:100EC00082E08083411581EE580761057105A1F02C
:100ED00060E079E08DE390E0A70196010E94C00BED
:100EE0002150310941095109569547953795279564
:100EF000211580E1380798F0E889F989108260E8C7
:100F000074E88EE190E0A70196010E94C00B215089
:100F10003109410951095695479537952795EC8533
:100F2000FD853083EE85FF852083188EEC89FD8951
:100F3000B082EA89FB89808180618083EA89FB89AC
:100F4000808188608083EA89FB89808180688083D2
:100F5000EA89FB8980818F7D8083DF91CF91FF902B
:100F6000EF90DF90CF90BF9008951F920F920FB631
:100F70000F9211242F938F939F93EF93FF93E09100
:100F80004A02F0914B028081E0915002F0915102AF
:100F900082FD12C09081809153028F5F8F732091E8
:100FA0005402821751F0E0915302F0E0E65CFD4FED
:100FB000958F8093530201C08081FF91EF919F91A3
:100FC0008F912F910F900FBE0F901F9018951F9229
:100FD0000F920FB60F9211242F933F934F935F936D
:100FE0006F937F938F939F93AF93BF93EF93FF93F1
:100FF0008AE392E00E94AB06FF91EF91BF91AF911F
:101000009F918F917F916F915F914F913F912F9120
:101010000F900FBE0F901F9018958AE392E00E94E8
:10102000700621E0892B09F420E0822F08951092A8
:101030003D0210923C0288EE93E0A0E0B0E0809385
:101040003E0290933F02A0934002B093410285E399
:1010500091E090933B0280933A0285EC90E090936C
:1010600047028093460284EC90E09093490280937B
:10107000480280EC90E090934B0280934A0281EC0E
:1010800090E090934D0280934C0282EC90E090931C
:101090004F0280934E0286EC90E090935102809331
:1010A0005002109253021092540210925502109264
:1010B0005602089508950E949D050E945A080E94B4
:1010C000A800CDE9D6E00E94F2002097E1F30E944B
:1010D0009D06F9CFCF92DF92EF92FF920F931F936D
:1010E000CF93DF937C016A01EB0100E010E00C1567
:1010F0001D0571F06991D701ED91FC910190F0818E
:10110000E02DC7010995892B19F00F5F1F4FEFCF15
:10111000C801DF91CF911F910F91FF90EF90DF9069
:10112000CF9008956115710581F0DB010D900020CD
:10113000E9F7AD0141505109461B570BDC01ED9118
:10114000FC910280F381E02D099480E090E0089505
:1011500061E471E00C9492080F931F93CF93DF9397
:10116000EC010E9492088C01CE010E94A808800F19
:10117000911FDF91CF911F910F910895FC01808104
:1011800091810C94800CCF93DF93EC01888199813D
:10119000009711F00E94800C198218821D821C8217
:1011A0001B821A82DF91CF9108950F931F93CF93E3
:1011B000DF93EC018B016F5F7F4F888199810E94E3
:1011C0000F0D009731F0998388831B830A8381E098
:1011D00001C080E0DF91CF911F910F910895CF93CF
:1011E000DF93EC0188819981892B29F08A819B8189
:1011F0008617970760F4CE010E94D508882341F036
:101200008C819D81892B19F4E881F981108281E01C
:10121000DF91CF910895EF92FF920F931F93CF9399
:10122000DF93EC017B018A01BA010E94EF08811172
:1012300004C0CE010E94C30807C01D830C83B70100
:10124000888199810E94200ECE01DF91CF911F915C
:101250000F91FF90EF900895FC011182108213828C
:101260001282158214826115710559F0FB010190FB
:101270000020E9F7AF0141505109461B570B0C9470
:101280000B0908950F931F93CF93DF938C01EB010C
:10129000FC0180819181009799F0428153812C81DA
:1012A0003D814217530750F0688179810E94200EDA
:1012B0008C819D81F8019583848313C00E94800CEA
:1012C00088819981F801918380838A819B819383AE
:1012D00082838C819D8195838483198218821B82ED
:1012E0001A821D821C82DF91CF911F910F91089568
:1012F000CF93DF93EC01FB018617970761F06081C4
:1013000071816115710529F0448155810E940B0995
:1013100002C00E94C308CE01DF91CF910895FC0165
:101320001182108213821282158214820C94780921
:10133000CF93DF93EC018617970711F00E944209C3
:10134000CE01DF91CF910895CF93DF93EC0161152A
:10135000710561F0FB0101900020E9F7AF014150F8
:101360005109461B570B0E940B0902C00E94C3087B
:10137000CE01DF91CF910895EF92FF920F931F93CB
:10138000CF93DF93EC017B010C811D816115710509
:1013900011F480E016C04115510591F0040F151F9E
:1013A000B8010E94EF088823A1F3288139818C813C
:1013B0009D81B701820F931F0E94200E1D830C8315
:1013C00081E0DF91CF911F910F91FF90EF900895F1
:1013D000CF93DF9300D0CDB7DEB769831A8241E0A7
:1013E00050E0BE016F5F7F4F0E94BC090F900F90CD
:1013F000DF91CF910895CF93DF93EC010E94E8092C
:10140000811103C0CE010E94C308CE01DF91CF91AC
:1014100008950F931F93CF93DF93EB01411551056F
:10142000E9F02097D9F0FC01648175812617370710
:10143000A0F4621B730B8A01015011096017710738
:1014400008F48B01FC0160817181620F731FA80198
:10145000CE010E94270EC00FD11F1882DF91CF91BD
:101460001F910F910895CF93DF93FC0184819581A3
:101470004817590778F4C081D181772767FD7095A7
:10148000CE01840F951F0E94150E009719F08C1B3A
:101490009D0B02C08FEF9FEFDF91CF91089540E049
:1014A00050E00C94330ABF92CF92DF92EF92FF92FA
:1014B0000F931F93CF93DF936C017B01EA018901A6
:1014C0002417350720F48D2FE901042F182F63E42A
:1014D00071E0C6010E942C09D70114968D919C9150
:1014E0001597C817D907C8F48017910708F48C011D
:1014F000D701ED91FC911197E00FF11FB0801082A0
:101500006D917C916C0F7D1FC6010E94A409D701CB
:10151000ED91FC91E00FF11FB082C601DF91CF91F8
:101520001F910F91FF90EF90DF90CF90BF900895A3
:10153000FC0180819181009711F00C94DD0D60E039
:1015400070E0CB01089540D008F481E00895E8945C
:1015500009C097FB3EF490958095709561957F4FFB
:101560008F4F9F4F9923A9F0F92F96E9BB279395A9
:10157000F695879577956795B795F111F8CFFAF4B9
:10158000BB0F11F460FF1BC06F5F7F4F8F4F9F4FEA
:1015900016C0882311F096E911C0772321F09EE848
:1015A000872F762F05C0662371F096E8862F70E0AE
:1015B00060E02AF09A95660F771F881FDAF7880F88
:1015C0009695879597F90895990F0008550FAA0BDE
:1015D000E0E8FEEF16161706E807F907C0F0121646
:1015E0001306E407F50798F0621B730B840B950B49
:1015F00039F40A2661F0232B242B252B21F408959E
:101600000A2609F4A140A6958FEF811D811D08953A
:1016100097F99F6780E870E060E008959FEF80ECA5
:10162000089500240A941616170618060906089548
:1016300000240A9412161306140605060895092EAE
:101640000394000C11F4882352F0BB0F40F4BF2B1D
:1016500011F460FF04C06F5F7F4F8F4F9F4F08955D
:1016600057FD9058440F551F59F05F3F71F0479553
:10167000880F97FB991F61F09F3F79F08795089538
:10168000121613061406551FF2CF4695F1DF08C057
:10169000161617061806991FF1CF86957105610574
:1016A00008940895E894BB2766277727CB0197F91C
:1016B00008958ADF08F48FEF08950BD0C0CFB1DF13
:1016C00028F0B6DF18F0952309F0A2CFA7CF112498
:1016D000EACFC6DFA0F3959FD1F3950F50E0551FD9
:1016E000629FF001729FBB27F00DB11D639FAA2777
:1016F000F00DB11DAA1F649F6627B00DA11D661FC6
:10170000829F2227B00DA11D621F739FB00DA11DE6
:10171000621F839FA00D611D221F749F3327A00DA0
:10172000611D231F849F600D211D822F762F6A2F3C
:1017300011249F5750408AF0E1F088234AF0EE0FC1
:10174000FF1FBB1F661F771F881F91505040A9F7CE
:101750009E3F510570F05CCFA6CF5F3FECF3983E03
:10176000DCF3869577956795B795F795E7959F5F35
:10177000C1F7FE2B880F911D9695879597F90895CF
:10178000A1E21A2EAA1BBB1BFD010DC0AA1FBB1F85
:10179000EE1FFF1FA217B307E407F50720F0A21BF7
:1017A000B30BE40BF50B661F771F881F991F1A9464
:1017B00069F760957095809590959B01AC01BD018E
:1017C000CF010895EE0FFF1F0590F491E02D0994CD
:1017D000CF93DF938230910510F482E090E0E091A6
:1017E000D902F091DA0220E030E0A0E0B0E03097DA
:1017F00039F14081518148175907B8F04817590706
:1018000071F482819381109729F013969C938E93A3
:1018100012972CC09093DA028093D90227C0211529
:10182000310531F04217530718F0A901DB0101C05F
:10183000EF019A01BD01DF010280F381E02DD7CFD6
:1018400021153105F9F0281B390B2430310580F4BE
:101850008A819B816115710521F0FB01938382834D
:1018600004C09093DA028093D902FE01329644C0FC
:10187000FE01E20FF31F81939193225031093983C6
:1018800028833AC02091D7023091D802232B41F40B
:1018900020910201309103013093D8022093D702A6
:1018A00020910001309101012115310541F42DB73E
:1018B0003EB74091040150910501241B350BE09186
:1018C000D702F091D802E217F307A0F42E1B3F0BCA
:1018D0002817390778F0AC014E5F5F4F24173507A2
:1018E00048F04E0F5F1F5093D8024093D702819368
:1018F000919302C0E0E0F0E0CF01DF91CF91089535
:10190000CF93DF93009709F487C0FC0132971382CD
:101910001282C091D902D091DA02209781F42081FD
:101920003181280F391F8091D7029091D8028217F8
:10193000930779F5F093D802E093D7026DC0DE01EA
:1019400020E030E0AE17BF0750F412964D915C9145
:1019500013979D014115510509F1DA01F3CFB383C6
:10196000A28340815181840F951F8A179B0771F4D0
:101970008D919C911197840F951F0296918380837E
:1019800012968D919C911397938382832115310533
:1019900029F4F093DA02E093D9023EC0D9011396FC
:1019A000FC93EE9312974D915D91A40FB51FEA172A
:1019B000FB0779F480819181840F951F0296D901EC
:1019C00011969C938E938281938113969C938E9310
:1019D0001297E0E0F0E08A819B81009719F0FE0108
:1019E000EC01F9CFCE01029628813981820F931F35
:1019F0002091D7023091D8022817390769F430971F
:101A000029F41092DA021092D90202C013821282D3
:101A1000D093D802C093D702DF91CF910895A0E070
:101A2000B0E0E5E1FDE00C94D80FEC01CB0120978C
:101A300019F40E94E80BB8C0FE01E60FF71F9E01E3
:101A400022503109E217F30708F4ACC0D9010D9117
:101A50001C91119706171707B8F00530110508F407
:101A60009FC0A801445051094617570708F498C071
:101A700002501109061B170B019311936D937C9370
:101A8000CF010E94800C8CC05B01A01AB10A4E01EC
:101A9000800E911EA091D902B091DA02612C712CB6
:101AA00060E070E0109709F449C0A815B905C9F5C0
:101AB000ED90FC901197670142E0C40ED11CCA144E
:101AC000DB0478F147018A189B08640142E0C40EE8
:101AD000D11C1296BC9012971396AC91B5E0CB1620
:101AE000D10440F0B282A38391828082D9018D9388
:101AF0009C9309C00E5F1F4F0E0D1F1DF90111832E
:101B00000083EB2DFA2F6115710531F0DB0113967F
:101B1000FC93EE93129744C0F093DA02E093D9025B
:101B20003FC06D917C9111976616770608F43B01D2
:101B3000BD0112960D90BC91A02DB4CF6091D7023B
:101B40007091D80268157905E9F468167906D0F421
:101B500040910001509101014115510541F44DB7EB
:101B60005EB76091040170910501461B570BE417A5
:101B7000F507C0F4F093D802E093D702F9019183FE
:101B800080830EC00E94E80B7C01009759F0A801E9
:101B9000BE010E940C0ECE010E94800CC70104C041
:101BA000CE0102C080E090E0CDB7DEB7EEE00C944D
:101BB000F40F662777270C944B0E1F93FC0199278F
:101BC0008827BC01E89411911032E9F3193010F024
:101BD0001E30C8F31B3251F01D3249F4689406C020
:101BE0000E94360E610F711D811D911D11911053C0
:101BF0001A30B0F33EF490958095709561957F4FC3
:101C00008F4F9F4F1F9108959111A8C1803219F0F5
:101C100089508550D0F70895FB01DC0102C0019086
:101C20000D9241505040D8F70895FC0181918617DC
:101C300021F08823D9F7992708953197CF01089586
:101C4000FB01DC0101900D920020E1F70895FB01FA
:101C5000DC014150504048F001900D920020C9F73E
:101C600001C01D9241505040E0F70895592F482F70
:101C7000372F262F660F771F881F991F660F771F34
:101C8000881F991F620F731F841F951F660F771F90
:101C9000881F991F0895A0E0B0E0E1E5FEE00C94F4
:101CA000DA0F8B016115710521F0DB018C93119620
:101CB0009C93EC015E01BFEFAB1ABB0A7501C880B3
:101CC0008C2D90E00E94040E892B11F0E501F2CFDB
:101CD000EDE2CE1208C07E01F2E0EF0EF11CC980E9
:101CE000DD24D39409C02BE2C21205C07E0142E07C
:101CF000E40EF11CC980D12CE701219743E050E0AC
:101D000060EC70E0CE010E94B10F892BC1F42396E4
:101D100045E050E06BEB70E0CE010E94B10F892BE3
:101D200009F425960115110519F0D801CD93DC931E
:101D3000D11006C160E070E080E89FE70AC143E08F
:101D400050E068EB70E0CE010E94B10F892B59F48E
:101D50000115110509F4F9C0B2E0EB0EF11CF80110
:101D6000F182E082F2C0F70160E070E0CB01C0E0F8
:101D7000D0E07F01A0EDAA2EAC0C29E02A1530F1AD
:101D80004D2D4260B42E2D2D2870D2FE04C021119D
:101D900025C0219623C021112197A5E0B0E09B0129
:101DA000AC010E94C90F660F771F881F991F6A0D2B
:101DB000711D811D911D6839A9E97A078A07A9E17A
:101DC0009A0760F0BD2DB660BB2E08C02EEFA212A0
:101DD0000AC0D3FC50C04D2D4860B42E3196D701B7
:101DE000CC90DB2CC6CF2C2D2F7D253409F043C0A1
:101DF000A081AD3241F4BD2DB061DB2E7F0122E028
:101E0000E20EF11C0CC07F01AB3231F04FEFE41A4F
:101E1000F40A21E030E006C0A2E0EA0EF11CA18144
:101E200022E030E0A053AA3018F0E21AF30A23C0EF
:101E3000F70120E030E02038BCE03B075CF4A9016A
:101E4000440F551F440F551F240F351F220F331FFA
:101E50002A0F311DAF014F5F5F4F7A01A081A05360
:101E6000AA3010F4FA01E7CFD4FE03C031952195D2
:101E70003109C20FD31FD1FE09C00115110531F080
:101E8000E1E0EE1AF108D801ED92FC920E94A70A57
:101E90002D2D2370233019F04B015C0106C04B013E
:101EA0005C01B7FAB094B7F8B09420E030E0A90133
:101EB000C501B4010E94A30A882309F43EC0D7FFDC
:101EC00006C0D195C195D10907ED10E002C00FEE13
:101ED00010E06801B8E1CB1AD10890E2E92EF12CAC
:101EE000CE15DF0574F0F801259135914591549197
:101EF000C501B4010E945D0B4B015C01CE19DF09E5
:101F0000EFCF04501109F594E7940C151D0541F726
:101F10008A2D880F8B2D881F8F3F49F020E030E0FD
:101F2000A901C501B4010E94A30A811106C082E281
:101F300090E09093DC028093DB02C501B40109C0FC
:101F400060E070E080E89FEF04C060E070E080EC4B
:101F50009FE7CDB7DEB7ECE00C94F60F9927882702
:101F60000895FB01DC014150504088F08D9181348F
:101F70001CF08B350CF4805E659161341CF06B3580
:101F80000CF4605E861B611171F3990B0895881B38
:101F9000FCCF0E940B10A59F900DB49F900DA49FA5
:101FA000800D911D112408952F923F924F925F92C0
:101FB0006F927F928F929F92AF92BF92CF92DF9259
:101FC000EF92FF920F931F93CF93DF93CDB7DEB7BE
:101FD000CA1BDB0B0FB6F894DEBF0FBECDBF099452
:101FE0002A88398848885F846E847D848C849B84A9
:101FF000AA84B984C884DF80EE80FD800C811B81B7
:10200000AA81B981CE0FD11D0FB6F894DEBF0FBEE5
:10201000CDBFED010895A29FB001B39FC001A39F62
:10202000700D811D1124911DB29F700D811D112411
:10203000911D089510E0CAEFD0E004C0FE010E9497
:0E204000E40B2296CC3FD107C9F7F894FFCFEE
:10204E000000DD02800005005541525420697320C6
:10205E0053746172746564210000000000C302961F
:10206E00026B027302860295020000000044056AAC
:10207E000800000000EE066A08700689067B06CC92
:10208E00060D0A006E616E00696E66006F76660060
:02209E002E0012
:00000001FF
